:060000000A128A117B2E9A
:100CF600A001A101A20183010A128A11422F7308E1
:100D0600720471047004031D892E8A2E8C2EB12E56
:100D1600B12E0130F4000030F5000030F60000304E
:100D2600F7007408F0027508031C750F9B2E9C2EA5
:100D3600F1027608031C760FA12EA22EF202770886
:100D4600031C770FA72EA82EF302730872047104F2
:100D56007004031DAF2EB02E8C2EB12E0800FC01A0
:100D6600831203131F15B72E1F19BA2EBB2EB72ECB
:100D7600BC2E9E08031DC02EC12EC32E8711412FE7
:100D86001E08F800F901F809F909F80A0319F90A21
:100D96007808FF3EFA0079080318013E003EFB0082
:100DA6007B08803AFF0080307F02031DDC2E07306F
:100DB6007A020318DF2EE02E0F2F0630F80078088F
:100DC600FC008312031387157C08F800F901FA0169
:100DD600FB017B08F3007A08F2007908F100780835
:100DE600F0000A128A1182260A128A11831203134C
:100DF60087117C08F800F901FA01FB017B08F30072
:100E06007A08F2007908F1007808F0000A128A11CF
:100E160082260A128A11412F831203131E03FF3AF8
:100E2600FF3EF8007808FC0087157C08F800F901F9
:100E3600FA01FB017B08F3007A08F2007908F10059
:100E46007808F0000A128A1182260A128A11831281
:100E5600031387117C08F800F901FA01FB017B08EE
:100E6600F3007A08F2007908F1007808F0000A1217
:100E76008A1182260A128A11412F412F08008312F5
:100E86000313A301FF30831603138500FF3086008A
:100E96008701831203138701831603139F014130D1
:100EA600831203139F000710871007115A2F861805
:100EB6005D2F5E2F7B2F602F602F861C632F642F84
:100EC600602F652F0030F3000030F2001830F1007B
:100ED6006A30F0000A128A1182260A128A1101303B
:100EE600FD007D0883120313A106013087067B2FC0
:100EF60006197E2F7F2F9C2F812F812F061D842F71
:100F0600852F812F862F0030F3000030F200183035
:100F1600F1006A30F0000A128A1182260A128A113A
:100F26000130FD007D0883120313A00602308706F8
:100F36009C2F061A9F2FA02FEB2FA22FA22F061E43
:100F4600A52FA62FA22FA72F0030F3000030F20006
:100F56001830F1006A30F0000A128A1182260A124D
:100F66008A110130FD007D0883120313A2060430A6
:100F76008706EB2FEB2F2108031DC22FE42F8716C0
:100F86002008031DC72FD52F07162208031DCC2FB7
:100F9600D22F0A128A11B2260A128A11EB2F871152
:100FA600EB2FEB2F07122208031DDA2FE02F0A1270
:100FB6008A11B2260A128A11EB2F8711EB2FEB2F1B
:100FC600EB2F0710871007118712A001A201EB2F44
:100FD60083120313861CF02FF12F5A2F061DF42FB0
:100FE600F52F5A2F061AF82FF92FBE2F5A2F5A2FE0
:0A0FF6005A2F5A2F0A128A11002800
:02400E00323F3F
:00000001FF
