:060000000A128A116A2EAB
:100CD400A001A101A20183010A128A11352F730810
:100CE400720471047004031D782E792E7B2EA02EBD
:100CF400A02E0130F4000030F5000030F600003082
:100D0400F7007408F0027508031C750F8A2E8B2EE9
:100D1400F1027608031C760F902E912EF2027708CA
:100D2400031C770F962E972EF30273087204710436
:100D34007004031D9E2E9F2E7B2EA02E08000310F0
:100D4400003003180130FC00831203131F15AA2E70
:100D54001F19AD2EAE2EAA2EAF2E9E08031DB32E44
:100D6400B42EB62E8711342F1E08F800F901F809A5
:100D7400F909F80A0319F90A7808FF3EFA00790814
:100D84000318013E003EFB007B08803AFF008030E0
:100D94007F02031DCF2E07307A020318D22ED32EE2
:100DA400022F0630F8007808FC008312031387151D
:100DB4007C08F800F901FA01FB017B08F3007A08CA
:100DC400F2007908F1007808F0000A128A117126FD
:100DD4000A128A118312031387117C08F800F9019F
:100DE400FA01FB017B08F3007A08F2007908F100AC
:100DF4007808F0000A128A1171260A128A11342F17
:100E0400831203131E03FF3AFF3EF8007808FC0028
:100E140087157C08F800F901FA01FB017B08F3004F
:100E24007A08F2007908F1007808F0000A128A11B1
:100E340071260A128A118312031387117C08F800A1
:100E4400F901FA01FB017B08F3007A08F200790842
:100E5400F1007808F0000A128A1171260A128A1128
:100E6400342F342F0800031000300318013083128C
:100E74000313A300FF30831603138500FF3086009D
:100E84008701831203138701831603139F014130E3
:100E9400831203139F00071087100711512F861820
:100EA400542F552F722F572F572F861C5A2F5B2FD5
:100EB400572F5C2F0030F3000030F2001830F1009F
:100EC4006A30F0000A128A1171260A128A1101305E
:100ED400FD007D0883120313A10601308706722FDB
:100EE4000619752F762F932F782F782F061D7B2FB9
:100EF4007C2F782F7D2F0030F3000030F200183063
:100F0400F1006A30F0000A128A1171260A128A115D
:100F14000130FD007D0883120313A006023087060A
:100F2400932F061A962F972FEB2F992F992F061E82
:100F34009C2F9D2F992F9E2F0030F3000030F2003C
:100F44001830F1006A30F0000A128A1171260A1270
:100F54008A110130FD007D0883120313A2060430B8
:100F64008706EB2FEB2F2108031DB92FDB2F8716E4
:100F74002008031DBE2FCC2F07162208031DC32FE4
:100F8400C92F0A128A11A1260A128A11EB2F87117E
:100F9400EB2FEB2F07122208031DD12FD72F0A1294
:100FA4008A11A1260A128A11EB2F8711EB2FEB2F3E
:100FB400EB2F071087100711871203100030031856
:100FC4000130A0000310003003180130A200EB2F01
:100FD400EB2F83120313861CF02FF12F512F061DC4
:100FE400F42FF52F512F061AF82FF92FB52F512F63
:0C0FF400512F512F512F0A128A11002892
:02400E00323F3F
:00000001FF
