:1000000083177B3084007E300A128A110D200A1279
:100010008A1183010A128A11152864008001840A5A
:1000200004060319003404060E28031000300318D8
:100030000130A00083160313FF308500FF308600D7
:1000400003100030031801308700031083120313DC
:1000500000300318013087000310831603130030AB
:10006000031801309F004130831203139F000710D3
:100070008710071186183D283E2859284028402817
:10008000861C432844283F280030AA000030A900DD
:100090001830A8006A30A7000A128A1151270A12E4
:1000A0008A11013083120313A1002108FC060130DC
:1000B000870606195C285D2878285F285F28061DBA
:1000C000622863285E280030AA000030A90018309A
:1000D000A8006A30A7000A128A1151270A128A1151
:1000E000013083120313A1002108FB0602308706AA
:1000F000061A7B287C2897287E287E28061E8128C1
:1001000082287D280030AA000030A9001830A800FD
:100110006A30A7000A128A1151270A128A11013087
:1001200083120313A1002108FD0604308706C928A5
:10013000FC08031D9C28BB288716FB08031DA1286B
:10014000AE280716FD08031DA628AC280A128A113E
:100150007F270A128A11AD288711BA280712FD08D5
:10016000031DB328B9280A128A117F270A128A119F
:10017000BA288711C92807108710071187120310A2
:10018000003003180130FB00031000300318013069
:10019000FD0083120313861CCE28CF28D728061D06
:1001A000D228D328D728061AD628D72898283A281C
:0601B0000A128A1100286A
:100EA2002A08290428042704031D582F592F5A2FD2
:100EB2007E2F0130AB000030AC000030AD000030BE
:100EC200AE002B08A7022C08031C2C0F692F6A2FD7
:100ED200A8022D08031C2D0F6F2F702FA9022E08B8
:100EE200031C2E0F752F762FAA022A082904280424
:100EF2002704031D7D2F7E2F5A2F08000310003078
:100F020003180130A2001F15872F872F1F198A2F60
:100F12008B2F862F9E08031D8F2F902F922F8711C4
:100F2200FF2F0030A4001E08FF3CA300031CA403F3
:100F32002408803AA50080302502031DA22F073025
:100F420023020318A52FA62FD32F0630A200871540
:100F520022088313A300A401A501A6012608AA0062
:100F62002508A9002408A8002308A7000A128A114C
:100F720051270A128A11831203138711220883133D
:100F8200A300A401A501A6012608AA002508A9001C
:100F92002408A8002308A7000A128A1151270A125E
:100FA2008A11FF2F1E09A200871522088313A300AE
:100FB200A401A501A6012608AA002508A900240863
:100FC200A8002308A7000A128A1151270A128A11BF
:100FD20083120313871122088313A300A401A5011E
:100FE200A6012608AA002508A9002408A8002308AB
:0E0FF200A7000A128A1151270A128A1108005C
:02400E00323F3F
:00000001FF
